:100000000C9458000C9480000C9480000C94800098
:100010000C9480000C9480000C9480000C94800060
:100020000C9480000C9480000C9480000C94800050
:100030000C9480000C9480000C9480000C94800040
:100040000C947A030C9480000C9448030C942203C3
:100050000C9480000C9480000C9480000C94800020
:100060000C94C4030C9480000000000025002800BC
:100070002B00040404040404040402020202020229
:10008000030303030303010204081020408001025C
:1000900004081020010204081020000000080002DB
:1000A0000100000304070000000000000000F2044B
:1000B00011241FBECFEFD8E0DEBFCDBF11E0A0E01E
:1000C000B1E0E4E3FDE002C005900D92AE33B1076C
:1000D000D9F722E0AEE3B1E001C01D92A43AB20725
:1000E000E1F710E0C8E5D0E004C02197FE010E94CE
:1000F0008D06C735D107C9F70E942B050C949806C9
:100100000C94000090E0FC01E656FF4F2491FC01A6
:10011000EA57FF4F3491FC01EE58FF4FE491EE2374
:10012000B1F1222339F1233091F038F42130A9F0D4
:10013000223001F584B58F7D12C0273091F0283030
:10014000A1F02430B9F4809180008F7D03C08091AC
:1001500080008F77809380000DC084B58F7784BD39
:1001600009C08091B0008F7703C08091B0008F7D6F
:100170008093B000F0E0EE0FFF1FE859FF4FA5910C
:10018000B4918FB7F894EC91E32BEC938FBF089563
:1001900008950895CF92DF92EF92FF920F931F93ED
:1001A000CF93DF936C017A018B01C0E0D0E0CE15D4
:1001B000DF0581F0D8016D918D01D601ED91FC91A3
:1001C0000190F081E02DC6010995892B11F021964F
:1001D000EECF7E01C701DF91CF911F910F91FF906C
:1001E000EF90DF90CF900895FC01538D448D252F23
:1001F00030E0842F90E0821B930B541710F0CF96C1
:10020000089501970895FC01918D828D981761F0F2
:10021000828DDF01A80FB11D5D968C91928D9F5F3D
:100220009F73928F90E008958FEF9FEF0895FC01E8
:10023000918D828D981731F0828DE80FF11D858D9B
:1002400090E008958FEF9FEF0895FC01918D228D2E
:10025000892F90E0805C9F4F821B91098F739927B3
:1002600008958BEF91E00E94250121E0892B09F48C
:1002700020E0822F0895FC01848DDF01A80FB11DBD
:10028000A35ABF4F2C91848D90E001968F739927CC
:10029000848FA689B7892C93A089B1898C918370AA
:1002A00080648C93938D848D981306C00288F389A3
:1002B000E02D80818F7D80830895EF92FF920F93D0
:1002C0001F93CF93DF93EC0181E0888F9B8D8C8D02
:1002D000981305C0E889F989808185FD26C0F62E2E
:1002E0000B8D10E00F5F1F4F0F731127E02E8C8DC9
:1002F000E8120CC00FB607FCFACFE889F9898081B3
:1003000085FFF5CFCE010E943B01F1CF8B8DFE0121
:10031000E80FF11DE35AFF4FF0829FB7F8940B8F5F
:10032000EA89FB89808180620AC09FB7F894EE89D0
:10033000FF896083E889F989808183708064808384
:100340009FBF81E090E0DF91CF911F910F91FF90CF
:10035000EF900895CF93DF93EC01888D8823C9F047
:10036000EA89FB89808185FD05C0A889B9898C91BE
:1003700086FD0FC00FB607FCF5CF808185FFF2CF59
:10038000A889B9898C9185FFEDCFCE010E943B01F0
:10039000E7CFDF91CF91089580E090E0892B29F09D
:1003A0000E94310181110C940000089585ED809325
:1003B000BC008091BC0084FDFCCF1092D601089552
:1003C00040917E01262F30E0240F311D213231056E
:1003D000DCF42091D6012430C9F4FC0180E090E0E7
:1003E000861758F430917E012191DC01A25ABE4F4C
:1003F000A30FB11D2C930196F3CF80917E01680F5E
:1004000060937E0180E0089581E0089582E0089580
:100410000895E091AF018091AE01E81730F4F0E06B
:10042000E25CFE4F808190E008958FEF9FEF08958A
:100430009091AF018091AE01981750F4E92FF0E050
:10044000E25CFE4F208130E09F5F9093AF0102C0DD
:100450002FEF3FEFC90108958091AE0190E0209108
:10046000AF01821B91090895CF92DF92EF92FF9224
:100470000F931F93CF93DF937C01CB018A012091CF
:10048000D701222389F0EB016B01C40ED51ECC15D8
:10049000DD0569F06991D701ED91FC910190F08142
:1004A000E02DC7010995F3CF642F0E94E001C80138
:1004B000DF91CF911F910F91FF90EF90DF90CF9040
:1004C0000895CF93DF931F92CDB7DEB76983209154
:1004D000D7012223D1F02091FA01203240F021E00F
:1004E00030E0FC013383228380E090E015C08091EE
:1004F000D801E82FF0E0E752FE4F998190838F5F9B
:100500008093D8018093FA0105C061E0CE01019685
:100510000E94E00181E090E00F90DF91CF9108957B
:10052000089580E090E00895009769F0FC01019043
:100530000020E9F73197AF01481B590BBC018BEF45
:1005400091E00C94CA0080E090E008958F929F9211
:10055000AF92BF920F931F93CF93DF93CDB7DEB7C8
:10056000A1970FB6F894DEBF0FBECDBF19A24230DF
:1005700008F44AE08E010F5D1F4F842E912CA12CB0
:10058000B12CA50194010E946B06E62FB901CA01A6
:1005900001501109EA3014F4E05D01C0E95CD801B2
:1005A000EC93232B242B252B61F7C8010E94940286
:1005B000A1960FB6F894DEBF0FBECDBFDF91CF91ED
:1005C0001F910F91BF90AF909F908F900895CF9201
:1005D000DF92EF92FF92CF93DF936B017C016DE28C
:1005E0008BEF91E00E945D01EC0166277727CB013C
:1005F0006C197D098E099F094AE00E94A6028C0FA2
:100600009D1FDF91CF91FF90EF90DF90CF900895E5
:10061000CF93DF93BC01990F880B990B97FF03C011
:100620000E94E70203C04AE00E94A602EC0184E2B5
:1006300091E00E9494028C0F9D1FDF91CF9108954D
:100640000E9493061F920F920FB60F9211242F93C0
:100650003F934F935F936F937F938F939F93AF934A
:10066000BF93EF93FF938BEF91E00E943B01FF91CB
:10067000EF91BF91AF919F918F917F916F915F911A
:100680004F913F912F910F900FBE0F901F90189593
:100690001F920F920FB60F9211242F938F939F9357
:1006A000EF93FF93E0910B02F0910C028081E091B7
:1006B0001102F091120282FD12C090818091140209
:1006C0008F5F8F7320911502821751F0E091140211
:1006D000F0E0E550FE4F958F8093140201C08081B9
:1006E000FF91EF919F918F912F910F900FBE0F90DF
:1006F0001F9018951F920F920FB60F9211242F93EF
:100700003F938F939F93AF93BF938091A601909156
:10071000A701A091A801B091A9013091A50123E002
:10072000230F2D3720F40196A11DB11D05C026E829
:10073000230F0296A11DB11D2093A5018093A60150
:100740009093A701A093A801B093A9018091A10162
:100750009091A201A091A301B091A4010196A11DC5
:10076000B11D8093A1019093A201A093A301B09326
:10077000A401BF91AF919F918F913F912F910F90C5
:100780000FBE0F901F9018951F920F920FB60F92E9
:1007900011242F933F934F935F936F937F938F9386
:1007A0009F93AF93BF93EF93FF938091B900887F9E
:1007B000803609F49CC068F5883209F45BC090F477
:1007C000803109F454C038F4882309F4F6C0883025
:1007D00009F44DC0F6C0883109F44CC0803209F4E8
:1007E0005DC0EFC0803409F468C048F4803309F478
:1007F00055C0883309F0E5C08093D401D8C0803556
:1008000009F44FC0883509F45DC0883409F0D9C0B7
:10081000D6C0883909F4C7C0A8F4883709F467C07E
:1008200038F4883609F463C0803709F460C0C9C061
:10083000883809F4B8C0803909F45FC0803809F0FD
:10084000C0C05BC0803B09F486C038F4803A09F42C
:1008500066C0883A09F47FC0B4C0803C09F4A7C0E0
:10086000883C09F4A4C0883B09F48AC0AAC08091DE
:10087000B10110C09091D3018091D201981770F509
:10088000E091D30181E08E0F8093D301F0E0EE542C
:10089000FE4F80818093BB0085EC86C08093D4019D
:1008A0008EC0E091D30181E08E0F8093D3018091BF
:1008B000BB00F0E0EE54FE4F80839091D301809115
:1008C000D2016EC0E091D30181E08E0F8093D301FD
:1008D0008091BB00F0E0EE54FE4F80838091D50103
:1008E00081116DC081E08093B00184EA61C083E032
:1008F0008093D6011092A001CFCF8091A0018032C9
:1009000008F051C0E091A00181E08E0F8093A0011A
:100910008091BB00F0E0E058FE4F8083BDCF85ECB6
:100920008093BC001092D6018091A001803230F4F7
:10093000E091A001F0E0E058FE4F10826091A0012C
:1009400070E0E091AA01F091AB0180E891E0099597
:100950001092A00136C084E08093D60110927F01EE
:1009600010927E01E091AC01F091AD01099580916A
:100970007E01811105C081E080937E0110925E01AD
:10098000E0917F0181E08E0F80937F01F0E0E25AD9
:10099000FE4F80818093BB0090917F0180917E010A
:1009A000981708F479CF85E88093BC000AC085ECDD
:1009B0008093BC001092D60104C01092D4010E9412
:1009C000D601FF91EF91BF91AF919F918F917F9150
:1009D0006F915F914F913F912F910F900FBE0F90AC
:1009E0001F901895EBEFF1E01382128288EE93E0EE
:1009F000A0E0B0E084839583A683B78324E031E050
:100A00003183208325EC30E03587248724EC30E0E7
:100A10003787268720EC30E0318B208B21EC30E0CB
:100A2000338B228B22EC30E0358B248B26EC30E0AC
:100A3000378B268B118E128E138E148EE8E9F2E01E
:100A40001382128284839583A683B78386E191E023
:100A5000918380830895789484B5826084BD84B541
:100A6000816084BD85B5826085BD85B5816085BDA9
:100A700080916E00816080936E0010928100809161
:100A800081008260809381008091810081608093E9
:100A90008100809180008160809380008091B1000E
:100AA00084608093B1008091B00081608093B00039
:100AB00080917A00846080937A0080917A008260CD
:100AC00080937A0080917A00816080937A0080918F
:100AD0007A00806880937A001092C100E0910B0246
:100AE000F0910C0282E08083E0910702F09108020D
:100AF0001082E0910902F0910A0280E18083109255
:100B00001302E0910F02F091100286E08083E091E1
:100B10000D02F0910E02808180618083E0910D02D0
:100B2000F0910E02808188608083E0910D02F09147
:100B30000E02808180688083E0910D02F0910E02A8
:100B400080818F7D808387E291E00E94940284E21D
:100B500091E00E94940289E391E00E94940284E271
:100B600091E00E9494021092AF011092AE01109297
:100B7000D8011092FA011092D60181E08093D5013C
:100B80001092B00182E10E94820083E10E94820003
:100B90008091B9008E7F8093B9008091B9008D7FDC
:100BA0008093B90088E48093B80085E48093BC000A
:100BB00088EC90E09093AD018093AC0189EC90E0DB
:100BC0009093AB018093AA018EE699E60E940803F8
:100BD000C1E0D0E011E002E0FF24FA9455EEE52EEA
:100BE00065ECD62E4AE060E27AE380E090E00E9475
:100BF000A602CE010E9408031093D701C093F90109
:100C00001092D8011092FA018091D6018111FCCF87
:100C10000093D6011093D501F092D4011092D30124
:100C20001092D2011092B1019091B1019E01220F58
:100C3000331F292B2093B1019091B001913069F4B9
:100C40001092B0019091B1019093BB009091BC00C3
:100C500093FDF8CFD092BC0002C0E092BC0090910E
:100C6000D6019230E1F39091D4019F3F69F08091D9
:100C7000D401803231F08091D401803321F084E0BE
:100C800003C082E001C083E01092D8011092FA0103
:100C90001092D70181110BC04AE060E27AE380E054
:100CA00090E00E94A602CE010E94080305C06EE2F9
:100CB0008BEF91E00E945D012196C837D10509F0C4
:100CC00091CF4AE065E47EE480E090E00E94A602D5
:100CD0000E94CC01FDCFA1E21A2EAA1BBB1BFD0175
:100CE0000DC0AA1FBB1FEE1FFF1FA217B307E4070B
:100CF000F50720F0A21BB30BE40BF50B661F771F63
:100D0000881F991F1A9469F7609570958095909542
:100D10009B01AC01BD01CF010895EE0FFF1F0590AF
:100D2000F491E02D099481E090E0F8940C949806F9
:040D3000F894FFCF65
:100D3400000000005D01CA00F400AA0125010301BE
:100D440017010000000061023402910208022C0223
:100D5400180209020D0A00496E697469616C697AA6
:0E0D6400652073657269616C006865726500D8
:00000001FF
