:100000000C9462000C948A000C948A000C948A0070
:100010000C948A000C948A000C948A000C948A0038
:100020000C948A000C948A000C948A000C948A0028
:100030000C948A000C948A000C948A000C948A0018
:100040000C9481030C948A000C944F030C942903A4
:100050000C948A000C948A000C948A000C948A00F8
:100060000C94CB030C948A000000000024002700AD
:100070002A000000000023002600290000000000E4
:10008000250028002B0004040404040404040202D4
:100090000202020203030303030301020408102007
:1000A0004080010204081020010204081020000012
:1000B0000008000201000003040700000000000027
:1000C0000000F90411241FBECFEFD8E0DEBFCDBF82
:1000D00012E0A0E0B1E0ECEAF2E102C005900D927E
:1000E000AE33B107D9F723E0AEE3B2E001C01D9211
:1000F000A73BB207E1F710E0C2E6D0E004C02197C9
:10010000FE010E944909C136D107C9F70E94320594
:100110000C9454090C94000008950895CF92DF9236
:10012000EF92FF920F931F93CF93DF936C017A01AD
:100130008B01C0E0D0E0CE15DF0581F0D8016D91D4
:100140008D01D601ED91FC910190F081E02DC60169
:100150000995892B11F02196EECF7E01C701DF9121
:10016000CF911F910F91FF90EF90DF90CF90089566
:10017000FC01538D448D252F30E0842F90E0821BAD
:10018000930B541710F0CF96089501970895FC0132
:10019000918D828D981761F0828DDF01A80FB11DBE
:1001A0005D968C91928D9F5F9F73928F90E00895E2
:1001B0008FEF9FEF0895FC01918D828D981731F09C
:1001C000828DE80FF11D858D90E008958FEF9FEFF0
:1001D0000895FC01918D228D892F90E0805C9F4FC6
:1001E000821B91098F73992708958EE093E00E94F6
:1001F000E90021E0892B09F420E0822F0895FC0119
:10020000848DDF01A80FB11DA35ABF4F2C91848D9F
:1002100090E001968F739927848FA689B7892C93D4
:10022000A089B1898C91837080648C93938D848D27
:10023000981306C00288F389E02D80818F7D80832A
:100240000895EF92FF920F931F93CF93DF93EC01EA
:1002500081E0888F9B8D8C8D981305C0E889F98982
:10026000808185FD26C0F62E0B8D10E00F5F1F4F9D
:100270000F731127E02E8C8DE8120CC00FB607FC0F
:10028000FACFE889F989808185FFF5CFCE010E94F8
:10029000FF00F1CF8B8DFE01E80FF11DE35AFF4FF8
:1002A000F0829FB7F8940B8FEA89FB898081806286
:1002B0000AC09FB7F894EE89FF896083E889F989BD
:1002C00080818370806480839FBF81E090E0DF91B4
:1002D000CF911F910F91FF90EF900895CF93DF93EF
:1002E000EC01888D8823C9F0EA89FB89808185FD2E
:1002F00005C0A889B9898C9186FD0FC00FB607FC8F
:10030000F5CF808185FFF2CFA889B9898C9185FFCF
:10031000EDCFCE010E94FF00E7CFDF91CF9108958E
:1003200080E090E0892B29F00E94F50081110C9467
:1003300000000895833081F028F4813099F08230F4
:10034000A1F008958730A9F08830B9F08430D1F455
:10035000809180008F7D03C0809180008F77809393
:100360008000089584B58F7702C084B58F7D84BDE9
:1003700008958091B0008F7703C08091B0008F7D89
:100380008093B0000895CF93DF93282F30E0F901D8
:10039000E255FF4F8491F901E656FF4FD491F901E0
:1003A000EA57FF4FC491CC2389F081110E949A0132
:1003B000EC2FF0E0EE0FFF1FE458FF4FA591B49132
:1003C0008FB7F894EC91ED2BEC938FBFDF91CF9129
:1003D00008952FB7F8946091A6027091A7028091BA
:1003E000A8029091A9022FBF089585ED8093BC00CB
:1003F0008091BC0084FDFCCF1092D60208954091FC
:100400007E02262F30E0240F311D21323105DCF42D
:100410002091D6022430C9F4FC0180E090E08617D8
:1004200058F430917E022191DC01A25ABD4FA30FF6
:10043000B11D2C930196F3CF80917E02680F6093DB
:100440007E0280E0089581E0089582E00895089595
:10045000E091AF028091AE02E81730F4F0E0E25C88
:10046000FD4F808190E008958FEF9FEF0895909168
:10047000AF028091AE02981750F4E92FF0E0E25CF1
:10048000FD4F208130E09F5F9093AF0202C02FEFBD
:100490003FEFC90108958091AE0290E02091AF0234
:1004A000821B91090895CF92DF92EF92FF920F93F2
:1004B0001F93CF93DF937C01CB018A012091D70258
:1004C000222389F0EB016B01C40ED51ECC15DD058E
:1004D00069F06991D701ED91FC910190F081E02DD7
:1004E000C7010995F3CF642F0E94FF01C801DF9176
:1004F000CF911F910F91FF90EF90DF90CF900895D3
:10050000CF93DF931F92CDB7DEB769832091D702D7
:100510002223D1F02091FA02203240F021E030E095
:10052000FC013383228380E090E015C08091D802E3
:10053000E82FF0E0E752FD4F998190838F5F809321
:10054000D8028093FA0205C061E0CE0101960E94B4
:10055000FF0181E090E00F90DF91CF910895089521
:1005600080E090E00895009769F0FC010190002080
:10057000E9F73197AF01481B590BBC018EE093E0BE
:100580000C948E0080E090E00895CF93DF930E945A
:10059000B302EC0188E291E00E94B3028C0F9D1F30
:1005A000DF91CF9108958F929F92AF92BF920F9358
:1005B0001F93CF93DF93CDB7DEB7A1970FB6F89413
:1005C000DEBF0FBECDBF19A2423008F44AE08E0153
:1005D0000F5D1F4F842E912CA12CB12CA5019401ED
:1005E0000E94F008E62FB901CA0101501109EA3052
:1005F00014F4E05D01C0E95CD801EC93232B242BBB
:10060000252B61F7C8010E94B302A1960FB6F8949A
:10061000DEBF0FBECDBFDF91CF911F910F91BF9075
:10062000AF909F908F900895CF93DF93682F70E0E5
:1006300080E090E04AE00E94D302EC0188E291E081
:100640000E94B3028C0F9D1FDF91CF9108950E94ED
:100650004F091F920F920FB60F9211242F933F93C1
:100660004F935F936F937F938F939F93AF93BF93BA
:10067000EF93FF938EE093E00E94FF00FF91EF91D4
:10068000BF91AF919F918F917F916F915F914F91AA
:100690003F912F910F900FBE0F901F9018951F92B2
:1006A0000F920FB60F9211242F938F939F93EF9376
:1006B000FF93E0911E03F0911F038081E0912403DA
:1006C000F091250382FD12C09081809127038F5FF6
:1006D0008F7320912803821751F0E0912703F0E0F7
:1006E000E25FFC4F958F8093270301C08081FF91CB
:1006F000EF919F918F912F910F900FBE0F901F90B0
:1007000018951F920F920FB60F9211242F933F93BB
:100710008F939F93AF93BF938091A6029091A7026E
:10072000A091A802B091A9023091A50223E0230F65
:100730002D3720F40196A11DB11D05C026E8230F19
:100740000296A11DB11D2093A5028093A60290934D
:10075000A702A093A802B093A9028091A102909150
:10076000A202A091A302B091A4020196A11DB11D05
:100770008093A1029093A202A093A302B093A4023B
:10078000BF91AF919F918F913F912F910F900FBE8D
:100790000F901F9018951F920F920FB60F92112471
:1007A0002F933F934F935F936F937F938F939F9379
:1007B000AF93BF93EF93FF938091B900887F80360A
:1007C00009F49CC068F5883209F45BC090F480316C
:1007D00009F454C038F4882309F4F6C0883009F4C9
:1007E0004DC0F6C0883109F44CC0803209F45DC0B8
:1007F000EFC0803409F468C048F4803309F455C070
:10080000883309F0E5C08093D402D8C0803509F45C
:100810004FC0883509F45DC0883409F0D9C0D6C00E
:10082000883909F4C7C0A8F4883709F467C038F4D8
:10083000883609F463C0803709F460C0C9C08838BD
:1008400009F4B8C0803909F45FC0803809F0C0C02D
:100850005BC0803B09F486C038F4803A09F466C076
:10086000883A09F47FC0B4C0803C09F4A7C0883C32
:1008700009F4A4C0883B09F48AC0AAC08091B102DF
:1008800010C09091D3028091D202981770F5E09138
:10089000D30281E08E0F8093D302F0E0EE54FD4F3F
:1008A00080818093BB0085EC86C08093D4028EC08B
:1008B000E091D30281E08E0F8093D3028091BB0040
:1008C000F0E0EE54FD4F80839091D3028091D202EC
:1008D0006EC0E091D30281E08E0F8093D3028091AD
:1008E000BB00F0E0EE54FD4F80838091D502811172
:1008F0006DC081E08093B00284EA61C083E08093A0
:10090000D6021092A002CFCF8091A002803208F0D0
:1009100051C0E091A00281E08E0F8093A0028091EF
:10092000BB00F0E0E058FD4F8083BDCF85EC8093A5
:10093000BC001092D6028091A002803230F4E09187
:10094000A002F0E0E058FD4F10826091A00270E03C
:10095000E091AA02F091AB0280E892E00995109232
:10096000A00236C084E08093D60210927F021092DB
:100970007E02E091AC02F091AD02099580917E0279
:10098000811105C081E080937E0210925E02E091A9
:100990007F0281E08E0F80937F02F0E0E25AFD4FEC
:1009A00080818093BB0090917F0280917E02981796
:1009B00008F479CF85E88093BC000AC085EC809369
:1009C000BC001092D60204C01092D4020E94F5011D
:1009D000FF91EF91BF91AF919F918F917F916F9117
:1009E0005F914F913F912F910F900FBE0F901F90ED
:1009F0001895EEE0F3E01382128288EE93E0A0E017
:100A0000B0E084839583A683B78328E031E0318307
:100A1000208325EC30E03587248724EC30E03787CD
:100A2000268720EC30E0318B208B21EC30E0338BBB
:100A3000228B22EC30E0358B248B26EC30E0378B98
:100A4000268B118E128E138E148EEBEAF3E0138236
:100A5000128284839583A683B7838AE191E0918390
:100A600080830895789484B5826084BD84B5816064
:100A700084BD85B5826085BD85B5816085BD809169
:100A80006E00816080936E001092810080918100E1
:100A900082608093810080918100816080938100D9
:100AA000809180008160809380008091B10084609B
:100AB0008093B1008091B00081608093B0008091FC
:100AC0007A00846080937A0080917A0082608093BB
:100AD0007A0080917A00816080937A0080917A0018
:100AE000806880937A001092C1001092AF02109239
:100AF000AE021092D8021092FA021092D60281E051
:100B00008093D5021092B00282E10E94C30183E17A
:100B10000E94C3018091B9008E7F8093B9008091BB
:100B2000B9008D7F8093B90088E48093B80085E494
:100B30008093BC008CE890E09093AD028093AC026F
:100B40008DE890E09093AB028093AA028EE391E04F
:100B50000E94C502E0911E03F0911F0382E0808392
:100B6000E0911A03F0911B031082E0911C03F091B5
:100B70001D0380E1808310922603E0912203F0910F
:100B8000230386E08083E0912003F091210380819C
:100B900080618083E0912003F0912103808188604F
:100BA0008083E0912003F09121038081806880831D
:100BB000E0912003F091210380818F7D808382E585
:100BC00091E00E94C502EEE9F0E024915AE8252E5A
:100BD00050E0352EF10184918823C1F090E0880F18
:100BE000991FFC01E859FF4FA591B491FC01E4580D
:100BF000FF4FC591D4913FB7F8949C91822F809577
:100C000098239C939881892388833FBF1092000387
:100C10001092FF0286E691E00E94C50281E0809377
:100C2000D7028CE38093F9021092D8021092FA0254
:100C30008091D6028111FCCF92E09093D60291E090
:100C40009093D5029FEF9093D4021092D30210920A
:100C5000D2021092B1029091B10298679093B102C2
:100C60009091B002913061F41092B0029091B10273
:100C70009093BB009091BC0093FDF8CF95EC01C020
:100C800095EE9093BC009091D6029230E1F3909152
:100C9000D4029F3F69F08091D402803231F080917C
:100CA000D402803321F084E003C082E001C083E0FD
:100CB0001092D8021092FA021092D702882381F083
:100CC00083E891E00E94B3024AE061E070E080E0D6
:100CD00090E00E94D30280E292E00E94B302E8C05A
:100CE0008BE891E00E94C50280E090E00E94A80895
:100CF0008093080385EA91E00E94C50210920603E2
:100D000085E080930703C0910803EC2EF12CF8E0F6
:100D1000EF0EF11CC530B0F4C7018C1B91090E9485
:100D2000A80890910603E92FF0E0EF5FFC4F808365
:100D30009F5F953019F09093060302C0109206034E
:100D4000CF5FE8CF8CEB91E00E94C50281E08093F9
:100D50000D031092090310920A0310920B031092D4
:100D60000C03D1E098EBC92E9BE0D92EE12CF12C9D
:100D7000812C912C5401939438E8432E33E1532E67
:100D8000612C712CE2EBF0E08491EEE9F0E014913B
:100D9000F101C491CC2379F081110E949A01EC2FCA
:100DA000F0E0EE0FFF1FEE58FF4FA591B4918C912C
:100DB000182309F0F9C08091000381110CC0D09371
:100DC00000030E94E9016093FB027093FC02809390
:100DD000FD029093FE028091000381116DC080910D
:100DE0000D03811182C00E94E90100910903109155
:100DF0000A0320910B0330910C030054184D2F4F20
:100E00003F4F061717072807390708F0A5C08EECD3
:100E100091E00E94C50289ED91E00E94C5020E9406
:100E20005108A50194010E94BE08C62F88EE91E0EA
:100E30000E94B302809108030E9414038AEF91E09C
:100E40000E94B3028C2F0E94140380910603E82FA6
:100E5000F0E0EF5FFC4FC0838F5F8093060330911B
:100E60000703831302C010920603E1E0F3E020E0E1
:100E700060E080E090E0231355C070E00E942109FB
:100E8000C62F83E092E00E94B3028C2F0E941403CD
:100E90008091080390E06C2F08960E94B008609142
:100EA00008036F3F09F046C08DE092E00E94C50242
:100EB0008FEF9FEF0E9454090E94E9010091FB020D
:100EC0001091FC022091FD023091FE020053184F58
:100ED0002F4F3F4F061717072807390708F07FCF16
:100EE0008091FF0281117BCF82C085EC91E00E944E
:100EF000B3020E94E901A30192010E94F00820FDC3
:100F000003C060E270E002C06CE77CE7072E000CD3
:100F1000880B990B4AE00E94D30288E291E00E947C
:100F2000B3023FC04191442319F0840F911D6F5FBC
:100F30002F5FA1CF80E090E00E94B0088EEC91E09E
:100F40000E94C5020E94E9016093090370930A039D
:100F500080930B0390930C030E94E90128EE33E089
:100F600040E050E00E94F008672B682B692BC9F421
:100F700087E292E00E94B3020E94E901A701960174
:100F80000E94F00820FD02C060E201C06AE28EE02B
:100F900093E00E94210188E291E00E94B3020E9446
:100FA000E9010E949001EECE80910003882309F4AC
:100FB00016CF8091FF02882319F01092FF0214C00F
:100FC00080910D038D2780930D038CEC91E00E949E
:100FD000C50280910D03811103C084E391E002C03A
:100FE0008BE291E00E94C50210920003F8CED093EC
:100FF000FF0283E392E00E94C5026091080380E053
:1010000090E00E94B00810920803E9CE8F929F9260
:10101000AF92BF92CF92DF92EF92FF92CF93DF9386
:10102000EC01688179818A819B8161157105810557
:10103000910521F464E279ED8BE597E02DE133EF42
:1010400041E050E00E94BE0849015A019B01AC01F9
:10105000A7EAB1E40E94DD086B017C01ACEEB4EFBD
:10106000A50194010E94EB08DC01CB018C0D9D1DB4
:10107000AE1DBF1DB7FF03C00197A109B04888830B
:101080009983AA83BB83BC01CD019F77DF91CF9168
:10109000FF90EF90DF90CF90BF90AF909F908F9098
:1010A00008958F929F92AF92BF92CF92DF92EF926C
:1010B000FF92609100017091010180910201909175
:1010C0000301611571058105910521F464E279ED53
:1010D0008BE597E02DE133EF41E050E00E94BE0840
:1010E00049015A019B01AC01A7EAB1E40E94DD0865
:1010F0006B017C01ACEEB4EFA50194010E94EB08FA
:10110000DC01CB018C0D9D1DAE1DBF1DB7FF03C0C3
:101110000197A109B0488093000190930101A09329
:101120000201B0930301BC01CD019F77FF90EF90C6
:10113000DF90CF90BF90AF909F908F900895609375
:1011400000017093010180930201909303010895BF
:10115000F999FECF92BD81BDF89A992780B508957F
:10116000262FF999FECF1FBA92BD81BD20BD0FB6C3
:10117000F894FA9AF99A0FBE01960895052E97FBF6
:101180001EF400940E94D50857FD07D00E94F00875
:1011900007FC03D04EF40C94D5085095409530953B
:1011A00021953F4F4F4F5F4F0895909580957095D3
:1011B00061957F4F8F4F9F4F08950E941209A59F01
:1011C000900DB49F900DA49F800D911D1124089542
:1011D000B7FF0C94DD080E94DD08821B930B089575
:1011E000A1E21A2EAA1BBB1BFD010DC0AA1FBB1F2B
:1011F000EE1FFF1FA217B307E407F50720F0A21B9D
:10120000B30BE40BF50B661F771F881F991F1A9409
:1012100069F760957095809590959B01AC01BD0133
:10122000CF010895A29FB001B39FC001A39F700D8D
:10123000811D1124911DB29F700D811D1124911DDE
:10124000089597FB072E16F4009407D077FD09D078
:101250000E94350907FC05D03EF4909581959F4F7B
:101260000895709561957F4F0895AA1BBB1B51E1AE
:1012700007C0AA1FBB1FA617B70710F0A61BB70B06
:10128000881F991F5A95A9F780959095BC01CD01AB
:101290000895EE0FFF1F0590F491E02D099481E071
:0C12A00090E0F8940C945409F894FFCFEF
:1012AC00010000000000000021018E00B8006E015A
:1012BC00E900C700DB000000000080025302B0020E
:1012CC0027024B02370228020D0A00506175736920
:1012DC006E672E00526573756D696E672E00496ED0
:1012EC00697469616C697A696E672073657269618A
:1012FC006C00496E697469616C697A696E67206209
:10130C007574746F6E00496E697469616C697A6981
:10131C006E6720564C36313830202873656E736FEB
:10132C007229004552524F523A20004C6F61646949
:10133C006E67206C6173742073616D706C652069CD
:10134C006E646578004C6F6164696E6720726563CA
:10135C00656E742073616D706C657300537461728B
:10136C0074696E67005061757365642E20002D2DB5
:10137C002D2D2D2D2D2D2D2D0052656164696E673F
:10138C002073616D706C65006C61737453616D706A
:10139C006C65496E6465783A200073616D706C659C
:1013AC003A2000617665726167653A2000455252B9
:1013BC004F523A204D656D6F72792066756C6C2EAC
:1013CC0020457869742E005265636F7264696E678C
:0E13DC003A2000526573657474696E670000F4
:00000001FF
