:100000000C9462000C948A000C948A000C948A0070
:100010000C948A000C948A000C948A000C948A0038
:100020000C948A000C948A000C948A000C948A0028
:100030000C948A000C948A000C948A000C948A0018
:100040000C9483030C948A000C9451030C942B039E
:100050000C948A000C948A000C948A000C948A00F8
:100060000C94CD030C948A000000000024002700AB
:100070002A000000000023002600290000000000E4
:10008000250028002B0004040404040404040202D4
:100090000202020203030303030301020408102007
:1000A0004080010204081020010204081020000012
:1000B0000008000201000003040700000000000027
:1000C0000000FB0411241FBECFEFD8E0DEBFCDBF80
:1000D00012E0A0E0B1E0E4EAF2E102C005900D9286
:1000E000AA33B107D9F723E0AAE3B2E001C01D9219
:1000F000A33BB207E1F710E0C2E6D0E004C02197CD
:10010000FE010E944509C136D107C9F70E94340596
:100110000C9450090C94000008950895CF92DF923A
:10012000EF92FF920F931F93CF93DF936C017A01AD
:100130008B01C0E0D0E0CE15DF0581F0D8016D91D4
:100140008D01D601ED91FC910190F081E02DC60169
:100150000995892B11F02196EECF7E01C701DF9121
:10016000CF911F910F91FF90EF90DF90CF90089566
:10017000FC01538D448D252F30E0842F90E0821BAD
:10018000930B541710F0CF96089501970895FC0132
:10019000918D828D981761F0828DDF01A80FB11DBE
:1001A0005D968C91928D9F5F9F73928F90E00895E2
:1001B0008FEF9FEF0895FC01918D828D981731F09C
:1001C000828DE80FF11D858D90E008958FEF9FEFF0
:1001D0000895FC01918D228D892F90E0805C9F4FC6
:1001E000821B91098F73992708958AE093E00E94FA
:1001F000E90021E0892B09F420E0822F0895FC0119
:10020000848DDF01A80FB11DA35ABF4F2C91848D9F
:1002100090E001968F739927848FA689B7892C93D4
:10022000A089B1898C91837080648C93938D848D27
:10023000981306C00288F389E02D80818F7D80832A
:100240000895EF92FF920F931F93CF93DF93EC01EA
:1002500081E0888F9B8D8C8D981305C0E889F98982
:10026000808185FD26C0F62E0B8D10E00F5F1F4F9D
:100270000F731127E02E8C8DE8120CC00FB607FC0F
:10028000FACFE889F989808185FFF5CFCE010E94F8
:10029000FF00F1CF8B8DFE01E80FF11DE35AFF4FF8
:1002A000F0829FB7F8940B8FEA89FB898081806286
:1002B0000AC09FB7F894EE89FF896083E889F989BD
:1002C00080818370806480839FBF81E090E0DF91B4
:1002D000CF911F910F91FF90EF900895CF93DF93EF
:1002E000EC01888D8823C9F0EA89FB89808185FD2E
:1002F00005C0A889B9898C9186FD0FC00FB607FC8F
:10030000F5CF808185FFF2CFA889B9898C9185FFCF
:10031000EDCFCE010E94FF00E7CFDF91CF9108958E
:1003200080E090E0892B29F00E94F50081110C9467
:1003300000000895833081F028F4813099F08230F4
:10034000A1F008958730A9F08830B9F08430D1F455
:10035000809180008F7D03C0809180008F77809393
:100360008000089584B58F7702C084B58F7D84BDE9
:1003700008958091B0008F7703C08091B0008F7D89
:100380008093B0000895CF93DF93282F30E0F901D8
:10039000E255FF4F8491F901E656FF4FD491F901E0
:1003A000EA57FF4FC491CC2389F081110E949A0132
:1003B000EC2FF0E0EE0FFF1FE458FF4FA591B49132
:1003C0008FB7F894EC91ED2BEC938FBFDF91CF9129
:1003D00008952FB7F8946091A2027091A3028091C2
:1003E000A4029091A5022FBF089585ED8093BC00D3
:1003F0008091BC0084FDFCCF1092D2020895409100
:100400007A02262F30E0240F311D21323105DCF431
:100410002091D2022430C9F4FC0180E090E08617DC
:1004200058F430917A022191DC01A65ABD4FA30FF6
:10043000B11D2C930196F3CF80917A02680F6093DF
:100440007A0280E0089581E0089582E00895089599
:10045000E091AB028091AA02E81730F4F0E0E65C8C
:10046000FD4F808190E008958FEF9FEF0895909168
:10047000AB028091AA02981750F4E92FF0E0E65CF5
:10048000FD4F208130E09F5F9093AB0202C02FEFC1
:100490003FEFC90108958091AA0290E02091AB023C
:1004A000821B91090895CF92DF92EF92FF920F93F2
:1004B0001F93CF93DF937C01CB018A012091D3025C
:1004C000222389F0EB016B01C40ED51ECC15DD058E
:1004D00069F06991D701ED91FC910190F081E02DD7
:1004E000C7010995F3CF642F0E94FF01C801DF9176
:1004F000CF911F910F91FF90EF90DF90CF900895D3
:10050000CF93DF931F92CDB7DEB769832091D302DB
:100510002223D1F02091F602203240F021E030E099
:10052000FC013383228380E090E015C08091D402E7
:10053000E82FF0E0EB52FD4F998190838F5F80931D
:10054000D4028093F60205C061E0CE0101960E94BC
:10055000FF0181E090E00F90DF91CF910895089521
:1005600080E090E00895009769F0FC010190002080
:10057000E9F73197AF01481B590BBC018AE093E0C2
:100580000C948E0080E090E00895CF93DF930E945A
:10059000B302EC0188E291E00E94B3028C0F9D1F30
:1005A000DF91CF9108950C94B3028F929F92AF92F6
:1005B000BF920F931F93CF93DF93CDB7DEB7A19771
:1005C0000FB6F894DEBF0FBECDBF19A2423008F4BB
:1005D0004AE08E010F5D1F4F842E912CA12CB12C6F
:1005E000A50194010E94EC08E62FB901CA0101504F
:1005F0001109EA3014F4E05D01C0E95CD801EC9324
:10060000232B242B252B61F7C8010E94B302A1964E
:100610000FB6F894DEBF0FBECDBFDF91CF911F9113
:100620000F91BF90AF909F908F900895CF93DF93DD
:10063000682F70E080E090E04AE00E94D502EC0173
:1006400088E291E00E94B3028C0F9D1FDF91CF9151
:1006500008950E944B091F920F920FB60F9211241A
:100660002F933F934F935F936F937F938F939F93BA
:10067000AF93BF93EF93FF938AE093E00E94FF0054
:10068000FF91EF91BF91AF919F918F917F916F916A
:100690005F914F913F912F910F900FBE0F901F9040
:1006A00018951F920F920FB60F9211242F938F93CC
:1006B0009F93EF93FF93E0911A03F0911B038081C6
:1006C000E0912003F091210382FD12C0908180917E
:1006D00023038F5F8F7320912403821751F0E091E1
:1006E0002303F0E0E65FFC4F958F8093230301C066
:1006F0008081FF91EF919F918F912F910F900FBE6D
:100700000F901F9018951F920F920FB60F92112401
:100710002F933F938F939F93AF93BF938091A202A8
:100720009091A302A091A402B091A5023091A102E0
:1007300023E0230F2D3720F40196A11DB11D05C024
:1007400026E8230F0296A11DB11D2093A1028093DC
:10075000A2029093A302A093A402B093A502809159
:100760009D0290919E02A0919F02B091A0020196DD
:10077000A11DB11D80939D0290939E02A0939F02A4
:10078000B093A002BF91AF919F918F913F912F9114
:100790000F900FBE0F901F9018951F920F920FB6DB
:1007A0000F9211242F933F934F935F936F937F93F7
:1007B0008F939F93AF93BF93EF93FF938091B90073
:1007C000887F803609F49CC068F5883209F45BC0E4
:1007D00090F4803109F454C038F4882309F4F6C049
:1007E000883009F44DC0F6C0883109F44CC080321D
:1007F00009F45DC0EFC0803409F468C048F4803368
:1008000009F455C0883309F0E5C08093D002D8C000
:10081000803509F44FC0883509F45DC0883409F08B
:10082000D9C0D6C0883909F4C7C0A8F4883709F4FC
:1008300067C038F4883609F463C0803709F460C0B3
:10084000C9C0883809F4B8C0803909F45FC080385D
:1008500009F0C0C05BC0803B09F486C038F4803A20
:1008600009F466C0883A09F47FC0B4C0803C09F43A
:10087000A7C0883C09F4A4C0883B09F48AC0AAC078
:100880008091AD0210C09091CF028091CE02981756
:1008900070F5E091CF0281E08E0F8093CF02F0E0FF
:1008A000E255FD4F80818093BB0085EC86C080932C
:1008B000D0028EC0E091CF0281E08E0F8093CF02F4
:1008C0008091BB00F0E0E255FD4F80839091CF0214
:1008D0008091CE026EC0E091CF0281E08E0F8093B6
:1008E000CF028091BB00F0E0E255FD4F8083809104
:1008F000D10281116DC081E08093AC0284EA61C0B5
:1009000083E08093D20210929C02CFCF80919C0210
:10091000803208F051C0E0919C0281E08E0F8093FC
:100920009C028091BB00F0E0E458FD4F8083BDCF76
:1009300085EC8093BC001092D20280919C028032A0
:1009400030F4E0919C02F0E0E458FD4F1082609199
:100950009C0270E0E091A602F091A7028CE792E081
:10096000099510929C0236C084E08093D2021092C6
:100970007B0210927A02E091A802F091A9020995F7
:1009800080917A02811105C081E080937A021092F1
:100990005A02E0917B0281E08E0F80937B02F0E0AF
:1009A000E65AFD4F80818093BB0090917B0280913D
:1009B0007A02981708F479CF85E88093BC000AC0C2
:1009C00085EC8093BC001092D20204C01092D00239
:1009D0000E94F501FF91EF91BF91AF919F918F918F
:1009E0007F916F915F914F913F912F910F900FBE2B
:1009F0000F901F901895EAE0F3E01382128288EEC0
:100A000093E0A0E0B0E084839583A683B78328E0D9
:100A100031E03183208325EC30E03587248724ECD6
:100A200030E03787268720EC30E0318B208B21ECBB
:100A300030E0338B228B22EC30E0358B248B26EC9C
:100A400030E0378B268B118E128E138E148EE7EAD0
:100A5000F3E01382128284839583A683B7838AE1AD
:100A600091E0918380830895789484B5826084BDF9
:100A700084B5816084BD85B5826085BD85B58160A2
:100A800085BD80916E00816080936E001092810020
:100A900080918100826080938100809181008160DB
:100AA000809381008091800081608093800080919C
:100AB000B10084608093B1008091B0008160809328
:100AC000B00080917A00846080937A0080917A00EF
:100AD000826080937A0080917A00816080937A00AE
:100AE00080917A00806880937A001092C100109201
:100AF000AB021092AA021092D4021092F602109247
:100B0000D20281E08093D1021092AC0282E10E9475
:100B1000C30183E10E94C3018091B9008E7F80935D
:100B2000B9008091B9008D7F8093B90088E48093EB
:100B3000B80085E48093BC008CE890E09093A90213
:100B40008093A8028DE890E09093A7028093A6027C
:100B500086E391E00E94C502E0911A03F0911B0325
:100B600082E08083E0911603F09117031082E091F8
:100B70001803F091190380E1808310922203E09121
:100B80001E03F0911F0386E08083E0911C03F09127
:100B90001D03808180618083E0911C03F0911D031F
:100BA000808188608083E0911C03F0911D03808127
:100BB00080688083E0911C03F0911D0380818F7D0C
:100BC00080838AE491E00E94C502EEE9F0E024917E
:100BD0005AE8252E50E0352EF10184918823C1F08A
:100BE00090E0880F991FFC01E859FF4FA591B4913F
:100BF000FC01E458FF4FC591D4913FB7F8949C9104
:100C0000822F809598239C939881892388833FBF66
:100C10001092FC021092FB028EE591E00E94C50248
:100C200081E08093D3028CE38093F5021092D4028A
:100C30001092F6028091D2028111FCCF92E0909343
:100C4000D20291E09093D1029FEF9093D002109244
:100C5000CF021092CE021092AD029091AD02986731
:100C60009093AD029091AC02913061F41092AC027D
:100C70009091AD029093BB009091BC0093FDF8CF92
:100C800095EC01C095EE9093BC009091D202923009
:100C9000E1F39091D0029F3F69F08091D0028032C1
:100CA00031F08091D002803321F084E003C082E0F3
:100CB00001C083E01092D4021092F6021092D30287
:100CC000882381F08BE791E00E94D3024AE061E043
:100CD00070E080E090E00E94D50281E292E00E9404
:100CE000D302E8C083E891E00E94C50280E090E072
:100CF0000E94A408809304038DE991E00E94C5023C
:100D00001092020385E080930303C0910403EC2E4C
:100D1000F12CF8E0EF0EF11CC530B0F4C7018C1BCC
:100D200091090E94A40890910203E92FF0E0E3509A
:100D3000FD4F80839F5F953019F09093020302C0AE
:100D400010920203CF5FE8CF84EB91E00E94C502CE
:100D500081E080930903109205031092060310921C
:100D6000070310920803D1E098EBC92E9BE0D92E1F
:100D7000E12CF12C812C912C5401939438E8432ED2
:100D800033E1532E612C712CE2EBF0E08491EEE91B
:100D9000F0E01491F101C491CC2379F081110E940B
:100DA0009A01EC2FF0E0EE0FFF1FEE58FF4FA591D8
:100DB000B4918C91182309F0F3C08091FC02811149
:100DC0000CC0D093FC020E94E9016093F70270937B
:100DD000F8028093F9029093FA028091FC0281114B
:100DE0006DC080910903811182C00E94E9010091C8
:100DF0000503109106032091070330910803005466
:100E0000184D2F4F3F4F061717072807390708F0CF
:100E1000A1C08FEC91E00E94C5028AED91E00E9492
:100E2000C5020E944D08A50194010E94BA08C62F70
:100E300089EE91E00E94D302809104030E94160380
:100E40008BEF91E00E94D3028C2F0E9416038091B9
:100E50000203E82FF0E0E350FD4FC0838F5F8093E3
:100E6000020330910303831302C010920203EDEFDB
:100E7000F2E020E060E080E090E0231351C070E0F9
:100E80000E941D09C62F84E092E00E94D3028C2F9D
:100E90000E9416038091040390E06C2F08960E9434
:100EA000AC08609104036F3F09F042C08EE092E00D
:100EB0000E94C5028FEF9FEF0E9450090E94E90136
:100EC0000091F7021091F8022091F9023091FA0294
:100ED0000053184F2F4F3F4F0617170728073907A2
:100EE00008F07FCF8091FB0281117BCF7CC086EC24
:100EF00091E00E94D3020E94E901A30192010E94A5
:100F0000EC0820FD03C060E270E002C06CE77CE703
:100F1000072E000C880B990B4AE00E94D50239C0BD
:100F20004191442319F0840F911D6F5F2F5FA5CF6E
:100F300080E090E00E94AC088FEC91E00E94C50236
:100F40000E94E901609305037093060380930703F1
:100F5000909308030E94E90128EE33E040E050E05E
:100F60000E94EC08672B682B692BB9F488E292E0A9
:100F70000E94D3020E94E901A70196010E94EC0899
:100F800020FD02C060E201C06AE28AE093E00E94B4
:100F9000210188E291E00E94B3020E949001F4CE08
:100FA0008091FC02882309F41CCF8091FB028823E6
:100FB00019F01092FB0214C0809109038D278093D1
:100FC00009038DEB91E00E94D30280910903811106
:100FD00003C080E391E002C08BE291E00E94C50271
:100FE0001092FC02FECED093FB026091040380E0DD
:100FF00090E00E94AC081092040384E392E00E9407
:10100000C502EFCE8F929F92AF92BF92CF92DF92A6
:10101000EF92FF92CF93DF93EC01688179818A810F
:101020009B81611571058105910521F464E279EDDB
:101030008BE597E02DE133EF41E050E00E94BA08E4
:1010400049015A019B01AC01A7EAB1E40E94D90809
:101050006B017C01ACEEB4EFA50194010E94E7089E
:10106000DC01CB018C0D9D1DAE1DBF1DB7FF03C064
:101070000197A109B04888839983AA83BB83BC01E7
:10108000CD019F77DF91CF91FF90EF90DF90CF90D0
:10109000BF90AF909F908F9008958F929F92AF9244
:1010A000BF92CF92DF92EF92FF9260910001709118
:1010B0000101809102019091030161157105810583
:1010C000910521F464E279ED8BE597E02DE133EFB2
:1010D00041E050E00E94BA0849015A019B01AC016D
:1010E000A7EAB1E40E94D9086B017C01ACEEB4EF31
:1010F000A50194010E94E708DC01CB018C0D9D1D28
:10110000AE1DBF1DB7FF03C00197A109B048809372
:10111000000190930101A0930201B0930301BC016F
:10112000CD019F77FF90EF90DF90CF90BF90AF9071
:101130009F908F90089560930001709301018093B8
:101140000201909303010895F999FECF92BD81BDEC
:10115000F89A992780B50895262FF999FECF1FBADE
:1011600092BD81BD20BD0FB6F894FA9AF99A0FBED0
:1011700001960895052E97FB1EF400940E94D10855
:1011800057FD07D00E94EC0807FC03D04EF40C94E6
:10119000D10850954095309521953F4F4F4F5F4F67
:1011A000089590958095709561957F4F8F4F9F4FD3
:1011B00008950E940E09A59F900DB49F900DA49FC5
:1011C000800D911D11240895B7FF0C94D9080E9439
:1011D000D908821B930B0895A1E21A2EAA1BBB1BF0
:1011E000FD010DC0AA1FBB1FEE1FFF1FA217B307F3
:1011F000E407F50720F0A21BB30BE40BF50B661F09
:10120000771F881F991F1A9469F7609570958095CC
:1012100090959B01AC01BD01CF010895A29FB00143
:10122000B39FC001A39F700D811D1124911DB29F1A
:10123000700D811D1124911D089597FB072E16F442
:10124000009407D077FD09D00E94310907FC05D032
:101250003EF4909581959F4F0895709561957F4FCD
:101260000895AA1BBB1B51E107C0AA1FBB1FA617ED
:10127000B70710F0A61BB70B881F991F5A95A9F73F
:1012800080959095BC01CD010895EE0FFF1F05904C
:10129000F491E02D099481E090E0F8940C945009C9
:0412A000F894FFCFF0
:1012A400010000000000000021018E00B8006E0162
:1012B400E900C700DB000000000080025302B00216
:1012C40027024B02370228020D0A0074727565006A
:1012D40066616C736500496E697469616C697A69E9
:1012E4006E672073657269616C00496E6974696127
:1012F4006C697A696E6720627574746F6E00496EEA
:10130400697469616C697A696E6720564C36313844
:1013140030202873656E736F7229004552524F5204
:101324003A20004C6F6164696E67206C61737420AD
:1013340073616D706C6520696E646578004C6F61D3
:1013440064696E6720726563656E742073616D7085
:101354006C6573005374617274696E6700706175B3
:101364007365643A20005061757365642E20002D06
:101374002D2D2D2D2D2D2D2D2D0052656164696E81
:10138400672073616D706C65006C61737453616D7B
:10139400706C65496E6465783A200073616D706C99
:1013A400653A2000617665726167653A20004552AE
:1013B400524F523A204D656D6F72792066756C6C90
:1013C4002E20457869742E005265636F7264696ECD
:0A13D400673A20007265736574002B
:00000001FF
